:020000041000EA
:1000000000B5324B212058609868022188439860DF
:10001000D860186158612E4B002199600221596106
:100020000121F02299502B49196001219960352056
:1000300000F044F80222904214D00621196600F024
:1000400034F8196E01211966002018661A6600F04E
:100050002CF8196E196E196E052000F02FF8012189
:100060000842F9D1002199601B49196000215960AB
:100070001A491B48016001219960EB211966A021F2
:10008000196600F012F800219960164914480160C1
:100090000121996001BC002800D000471248134993
:1000A000086003C880F30888084703B5996A0420EC
:1000B0000142FBD001200142F8D103BD02B5186610
:1000C0001866FFF7F2FF186E186E02BD00000240BE
:1000D000000000180000070000035F00212200005C
:1000E000F4000018222000A00001001008ED00E03C
:1000F00000000000000000000000000074B24E7A12
:1001000000200420F7010010C3010010C5010010F9
:10011000C1010010C1010010C1010010C101001097
:10012000C1010010C1010010C1010010C701001081
:10013000C1010010C10100102D1000106D09001048
:10014000CD010010CD010010CD010010CD01001037
:10015000CD010010CD010010CD010010CD01001027
:10016000CD010010CD010010CD010010CD01001017
:10017000CD010010CD010010CD010010CD01001007
:10018000CD010010CD010010CD010010CD010010F7
:10019000CD010010CD010010CD010010CD010010E7
:1001A000CD010010CD010010CD010010CD010010D7
:1001B000CD010010CD010010CD010010CD010010C7
:1001C00000BE00BE00BE00BE00BE00BE00F04BF888
:1001D000103800BEF2EB88716C8E00108C8E00100F
:1001E0003402001090A31AE700202149086006C8D5
:1001F00081F3088810471F48006800282FD10DA4FC
:100200000ECC002902D000F012F8F9E71A491B4A77
:10021000002000E001C19142FCD1194988471949E9
:1002200088471949884700BEFDE701C901C29A42C3
:10023000FBD370478C8E0010C0000020640B0020A0
:1002400030990010000004200000042030990010B4
:1002500000100420001004200000000070470B482C
:1002600005F024FB0047EFF30580C0B270470000A3
:1002700008ED00E0000000D0680B00206C1C00209E
:10028000593000103D080010B531001057560000DD
:1002900005005250DE65F468309900100600525097
:1002A0005422A29D008D001006005250861C0302AD
:1002B0000C8D001006005250ABB360531C8D001023
:1002C000F8B5C046054B0648033310B51B1A062B7C
:1002D00003D9044B002B00D0984710BD640B0020BD
:1002E000640B0020000000000648074910B5091AF9
:1002F0008910CB0F5918491003D0044B002B00D0A4
:10030000984710BD640B0020640B00200000000023
:1003100010B5074C2378002B09D1FFF7D3FF054B0D
:10032000002B02D0044800E000BF0123237010BD61
:10033000680B002000000000907D0010094B10B5F4
:10034000002B03D00849094800E000BF08480368B3
:10035000002B02D1FFF7C8FF10BD064B002BF9D0D0
:100360009847F7E7000000006C0B0020907D00101C
:10037000640B00200000000080B582B000AF786000
:10038000D0231B067A685A62C046BD4602B080BDC3
:1003900080B582B000AF7860D0231B067A689A627D
:1003A000C046BD4602B080BD80B584B000AF786065
:1003B0000A00FB1C1A7001227B689A401300FB6044
:1003C000FB1C1B78002B04D0FB681800FFF7D4FF40
:1003D00003E0FB681800FFF7DBFFC046BD4604B032
:1003E00080BD000080B500AF084B802252021A6029
:1003F000074B180000F0CEFD064B802252021A6017
:10040000034B180000F0C6FDEEE7C046140000D014
:10041000E0930400180000D080B582B000AF002344
:100420007B60084B802292041A60074B180000F092
:10043000B1FD064B802292041A60034B180000F0B5
:10044000A9FDEEE7140000D088900000180000D04D
:10045000F0B5A5B002AF00F053FA03000C00802203
:10046000BA18136054600823FB18180038231A00C8
:10047000002106F00BFBD54B180000F08BFD00F0BF
:100480003FFA03000C003B677C67396F7A6F80236B
:10049000FB185C681B68C91AA2410B001400BB66FC
:1004A000FC663B6F7C6F8022BA1813605460386F13
:1004B000796FC64A002305F0C7FA03000C00C4494F
:1004C0001A002300080006F0FBFC7723082294465C
:1004D000BC44634400221A70ABE0772308229446A0
:1004E000BC4463441B78BB4A5B01D31808331968CA
:1004F0005A68772308208446BC4463441B7808204C
:100500003818DB00C3185C681B68C91AA2410B00CD
:100510001400BB64FC64772308229446BC44634403
:100520001D78772308229446BC4463441A78AA496C
:1005300013005B009B18DB00CB185C681B6818007D
:10054000210005F04BFD0022A44B05F097FC0300B1
:100550000C003B607C60386F796F05F03FFD030055
:100560000C001A0023003868796805F07EFC03004F
:100570000C009B481A002300290006F0A1FCB86C6F
:10058000F96C05F02BFD0022944B05F077FC03007D
:100590000C0025001C00B86EF96E05F01FFD02006E
:1005A0000B002000290005F060FC03000C0018007F
:1005B000210005F01FFD031C7B64796C894806F05F
:1005C0001CF9031C181C06F02FF905000E00786CAE
:1005D00006F02AF903000C008349009301942A00D5
:1005E0003300080006F06CFC772308229446BC44D4
:1005F00063441A78772308218C46BC4463441B78F3
:1006000074495B01CB1808335C681B6808217918B2
:10061000D2008A1813605460772308229446BC44A1
:1006200063441A78772308218C46BC446344013222
:100630001A70772308229446BC4463441B78012B2C
:1006400000D84AE7694B180006F03CFB76230822E5
:100650009446BC44634402221A70AAE0762308221E
:100660009446BC4463441B785A015A4BD3187B66AA
:10067000762308229446BC4463441B78991E7B6E03
:100680009A695B4B180006F01BFC762308229446FF
:10069000BC4463441B78002B22D07B6E5B79DBB2B9
:1006A000012B12D002DC002B05D01DE0022B11D053
:1006B000032B05D018E04F4B180006F001FC13E0A7
:1006C0004D4B180006F0FCFB0EE04C4B180006F0FA
:1006D000F7FB09E04A4B180006F0F2FBC04603E0C6
:1006E000484B180006F0ECFB7B6E9968DA687623BD
:1006F00008208446BC4463441B7808203818DB007B
:10070000C3185C681B68C91AA2410B001400BB65C2
:10071000FC65762308229446BC4463441A787B6EB9
:10072000DC689B6808217918D2008A18136054602D
:100730007B6E9B7FDAB24F2308218C46BC44634416
:1007400030321A707B6E1B7F1E00B86DF96D05F09C
:1007500045FC0022214B05F091FB03000C00250015
:100760001C00B86EF96E05F039FC02000B00200089
:10077000290005F07AFB03000C00190022004F232A
:1007800008208446BC4463441B781F480093130030
:100790000A00310006F094FB762308229446BC44FC
:1007A00063441A78762308218C46BC4463440132A2
:1007B0001A70164B1B78762208218C46BC44624482
:1007C00012789A4200D249E755E6C04640420F00EF
:1007D000907D001048190020301A00200000594078
:1007E000A47D00100000C842B87D0010D47D001028
:1007F000FC7D0010087E00100C7E0010107E0010A2
:10080000147E0010187E00101C7E0010780200205C
:1008100080B582B000AFBB1D00221A8004E0BB1D72
:100820001A88BB1D01321A80BB1D1B88024A9342E5
:10083000F5D900F02FFBEEE7A761000090B583B07B
:1008400002AF06F054FB192000F080FC01211920B2
:10085000FFF7AAFD102000F079FC01211020FFF71E
:10086000A3FD0E2000F072FC01210E20FFF79CFD7D
:100870000F2000F06BFC01210F20FFF795FD144ABB
:100880001449154864230093802300F023FB134A86
:100890001349144864230093802300F01BFB80233A
:1008A0005C00114A11491248FF230093230000F015
:1008B00011FB104A1049114896230093802300F041
:1008C00009FB00F083FA00231800BD4601B090BD7B
:1008D000C80D0020E5030010307E0010C80B00207A
:1008E00019040010387E001030130020510400104D
:1008F000447E001030170020110800104C7E0010BC
:1009000090B583B000AF0C4A12683A6000227A605A
:100910000A4A126812041300002214003A681A43AB
:100920003A607A68224313007B603B687C68180059
:100930002100BD4603B090BD0C4005400840054075
:1009400080B500AFC046034B1B68002BFBD0C046F0
:10095000BD4680BD000100D080B500AF024B002233
:100960001A60C046BD4680BD000100D080B500AF12
:10097000034B802252051A60C046BD4680BDC0466A
:1009800004ED00E0F0B58DB000AFFFF7B9FF030054
:100990000C003B627C62D0231B061A6817230821D7
:1009A0008C46BC4463441A70172308229446BC4406
:1009B00063441A7813005B009B18DB00B24A9B1853
:1009C000BB61172308229446BC4463441A78AF4B9A
:1009D0009200D358FB623A6ABB69DC689B68D31A01
:1009E0007B61BB691B695A1CBB691A61FB6ADC68C5
:1009F0009B687A693A6000227A6039687A685B1885
:100A00005441FA6A9360D460FB6A172208218C462D
:100A1000BC44624412789A77FB6AFF225A77FB6AD9
:100A20000022DA77FFF78CFF232308229446BC4488
:100A30006344FF221A70222308229446BC44634474
:100A400002221A7055E0222308229446BC446344D3
:100A50001B785A018E4BD3183B613B695B7FDBB23D
:100A6000FF2B0AD03B695B7FDBB2172208218C4643
:100A7000BC44624412789A422BD13B695B79DBB269
:100A8000022B0ED13B695C691B697A6AA24208D3CA
:100A90007A6AA24202D13A6A9A4202D33B6901229F
:100AA0005A713B695B79DBB2012B14D13B691B7F27
:100AB000232208218C46BC44624412789A420BD906
:100AC000232308229446BC4463443A69127F1A7077
:100AD00002E0C04600E0C046222308229446BC44FF
:100AE00063441A78222308218C46BC4463440132B3
:100AF0001A70684B1B78222208218C46BC44624441
:100B000012789A429FD3644B1B78DBB2012B02D838
:100B1000614B01221A70212308229446BC4463448D
:100B200002221A7047E05C4B1B78DBB20133DAB269
:100B3000594B1A70584B1B78DAB2564B1B789A42B5
:100B400002D3554B02221A70534B1B78DBB25A0169
:100B50004F4BD318FB60FB685B7FDBB2FF2B0AD0E7
:100B6000FB685B7FDBB2172208218C46BC446244E1
:100B700012789A420FD1FB685B79DBB2012B0CD162
:100B8000FB681B7F232208218C46BC4462441278F8
:100B90009A421BD002E0C04600E0C0462123082252
:100BA0009446BC4463441A78212308218C46BC44F3
:100BB000634401321A70374B1B78212208218C467E
:100BC000BC44624412789A42ADD300E0C046314B37
:100BD0001B78212208218C46BC44624412789A4238
:100BE00016D3172308229446BC4463441B7817226B
:100BF00008218C46BC44624412785101244A88186A
:100C0000224A99008850214A9B009B58FB6212E0BF
:100C1000172308229446BC4463441B781E4A12786A
:100C2000D2B251011A4A8818184A99008850174AB6
:100C30009B009B58FB62FB6A172208218C46BC4430
:100C4000624412785A77FFF787FEFFF759FE0300D8
:100C50000C001A003B6AD31ABB60BB695C681B6856
:100C6000BA681500002216005B197441BA69136056
:100C70005460FFF745FE03000C00BA699360D4602E
:100C8000C046BD460DB0F0BD301A0020281A002025
:100C900048190020780200204519002080B500AFD7
:100CA00030BFFDE790B585B000AF0200FB1D1A70A4
:100CB000FB1D1B785A012F4BD318FB60FA680023E9
:100CC00000249360D460FB6801225A71FB68FF2204
:100CD0001A77FB68FF225A77FB68FA1D12781A719F
:100CE000FB68254A9A610B23FB1864221A70FB1DCE
:100CF00019780B23FB180B22BA181278013A1A70D4
:100D00000B23FB181A781D4B642041438A1892006C
:100D100080214904D150FB1D18780B23FB180B22AE
:100D2000BA181278013A1A700B23FB181A78144972
:100D3000124B6424604382189200D150FB1D1B7833
:100D4000C82252005A430D4BD3185133FF331A00B7
:100D5000FB681A60FB1D1A780A4B9200F968D150A3
:100D6000FB681B680221180000F044F9C046BD462C
:100D700005B090BD48190020547E001000100020DE
:100D80009D0C0010281A002080B500AF0120FFF74D
:100D900089FF094B094A1A60094B07221A60094B5F
:100DA000C02212041A60084B5B681B68180000F030
:100DB00072F9C046BD4680BD14E000E0D0121300B9
:100DC00010E000E020ED00E0281A002090B583B08C
:100DD00000AFFB1D00221A7013E0FB1D1C78FFF70B
:100DE0008FFD0A000100164823005B001B19DB0081
:100DF000C318083319605A60FB1D1A78FB1D0132B5
:100E00001A70FB1D1B78012BE7D90020FFF74AFF62
:100E10000C4B02221A700C4B0C4A1A600C4B072226
:100E20001A600C4BC02212041A600B4B180006F01B
:100E3000B3FA0A4B1B681B68180000F02CF9FEE798
:100E4000301A00204519002014E000E0D0121300F1
:100E500010E000E020ED00E0890D0010281A0020CD
:100E600080B582B000AF72B6D0231B061A68FB1D96
:100E70001A70FB1D1A78064B9200D258BB1D1279CE
:100E80001A7062B6BB1D1B781800BD4602B080BD4B
:100E9000281A002080B582B000AFFFF7E1FF030001
:100EA0005A010A4BD3187B607B680122DA77084B22
:100EB0008022D2041A60C0467B68DB7FDBB2002B45
:100EC000FAD1C046BD4602B080BDC04648190020D8
:100ED00004ED00E090B587B000AFF860B9607A60CB
:100EE0001A00BB1C1A80264B1B78062B43D8244BB8
:100EF0001B785A01234BD3187B617A6900230024A5
:100F00009360D4607B6901225A717B692822BA18E8
:100F100012781A777B69FF225A77194B1A787B6906
:100F20001A717B69FA689A61BB1C1B88164A944641
:100F300063449B007A68D318802252041A60BB1C59
:100F40001B88124A944663449B007A68D318BA6897
:100F50001A60BB1C1B880E4A944663449B007A6847
:100F6000D3181A007B691A60054B1B780133DAB27B
:100F7000034B1A7000E0C046BD4607B090BDC046A6
:100F80007802002048190020FFFFFF3FFEFFFF3FCF
:100F9000F0FFFF3FF0B585B000AF78600F23FE187B
:100FA000FFF75EFF030033700F23FB181E78FFF777
:100FB000A7FC02000B0079680C0000210D0012193B
:100FC0006B411C0013000A4972018A181032136029
:100FD00054600F23FB181B78054A5B01D3180533B7
:100FE00002221A70FFF756FFC046BD4605B0F0BD9D
:100FF0004819002081F3148880F309888546BFF3DF
:101000006F8F704780F30888704780F309887047B6
:101010000FB42649012282400A600FBC70470FB40A
:101020002349012282400A600FBC704772B62148F2
:1010300000680E30FFF7ECFF6B46EFF30982954630
:10104000F0B444464D4656465F46F0B46A461949E8
:101050000968890018484058026083F30888FFF740
:1010600091FC6B461349096889001348405802688F
:101070009546F0BCA046A946B246BB46F0BC6946C0
:1010800081F309889D460B4800680E30FFF7C7FFC3
:101090000A4862B6004772B68546F0BCF0BC0FBC89
:1010A00030BC08BC9E4608BC62B67047140000D035
:1010B000180000D0000000D0281A0020FDFFFFFF1C
:1010C00080B582B000AF786039607B6880225201C1
:1010D00013433A681A60C046BD4602B080BD80B571
:1010E00084B000AFF860B9607A60FB681A68BB68CA
:1010F00053407A681A40FB6811001800FFF7E0FFC0
:10110000C046BD4604B080BD80B582B000AF7860F7
:101110000A00FB1C1A707B689B000A4A94466344D1
:10112000C02240211800FFF7DAFF0749FB1C1A789C
:101130007B68DB00CB1804331A60C046BD4602B0A2
:1011400080BDC04604C001400040014080B582B06F
:1011500000AF7860D0231B0601217A6891400A0015
:101160009A62D0231B0601217A6891400A009A6195
:101170007B6805211800FFF7C7FFC046BD4602B0D7
:1011800080BD80B500AFBFF35F8FC046BD4680BD58
:1011900080B500AFFFF7F5FFC046BD4680BD80B506
:1011A00000AFFFF7EEFFC046BD4680BD80B582B000
:1011B00000AFEFF310837B6072B67B681800BD460A
:1011C00002B080BD80B582B000AF78607B6883F3E9
:1011D0001088C046BD4602B080BD000080B582B018
:1011E00000AF78607B68044A944663449B00180013
:1011F000BD4602B080BDC0464000003480B582B01C
:1012000000AF7860C0467B681B685A425341DBB22E
:10121000002BF8D1FFF7BCFFC046BD4602B080BD31
:1012200080B582B000AF7860FFF7B9FF7B6800221D
:101230001A60C046BD4602B080BD80B584B000AF24
:101240007860FFF7B3FF0300FB607B681800FFF7CF
:10125000D5FFFB681800BD4604B080BD80B582B0E4
:1012600000AF786039607B681800FFF7D9FF3B68F2
:101270001800FFF7A7FFC046BD4602B080BD80B58D
:1012800000AF0B20FFF7AAFF03001800FFF7D5FF00
:1012900003001800BD4680BD80B582B000AF786005
:1012A0000B20FFF79BFF02007B6819001000FFF77F
:1012B000D5FFC046BD4602B080BD80B586B000AF48
:1012C000F860B9607A60FFF7DAFF03007B61BB6802
:1012D000DB08FA68D3181B781900BB680722134093
:1012E000D9400B000122134005D0BA687B68110079
:1012F000180001F08DFFBB68DB08FA68D318BA68E4
:10130000D208F9688A181178BA68072002400120CB
:1013100090400200D2B20A43D2B21A707B69180020
:10132000FFF7BAFFC046BD4606B080BD80B500AF2E
:10133000BFF35F8FC046BD4680BD80B500AFFFF7ED
:10134000F5FFC046BD4680BD80B582B000AF786075
:101350007B68044A944663449B001800BD4602B073
:1013600080BDC0464000003480B582B000AF7860D8
:10137000FFF7E3FF7B6800221A60C046BD4602B05B
:1013800080BD80B582B000AF00237B600AE07B683F
:101390001800FFF7D9FF03001800FFF7E5FF7B688F
:1013A00001337B607B681F2BF1D9C046BD4602B07C
:1013B00080BD000080B582B000AF094B1B785A1C7D
:1013C000D1B2074A11707B60054B1B78172B02D9ED
:1013D000034B10221A707B681800BD4602B080BD16
:1013E0007902002080B500AF044B1B680222134035
:1013F0005A1E9341DBB21800BD4680BD00C00640B6
:1014000080B500AFC046BD4680BD80B582B000AF9C
:10141000786039607B688022920113433A681A60D1
:10142000C046BD4602B080BD80B582B000AF7860D6
:1014300039607B68C022920113433A681A60C04643
:10144000BD4602B080BD80B582B000AF7860396023
:101450007B688022520113433A681A60C046BD4639
:1014600002B080BD80B584B000AFF860B9607A602A
:10147000FB681A68BB6853407A681A40FB68110021
:101480001800FFF7E0FFC046BD4604B080BD000075
:1014900080B582B000AF78607B68054A94466344AB
:1014A0005A425341DBB21800BD4602B080BDC0466F
:1014B0000080FCBF80B582B000AF78607B68180008
:1014C000FFF7E6FF7B681800BD4602B080BD80B51F
:1014D00084B000AFF860B9607A601A00FB1C1A7023
:1014E000FB681800FFF7E6FF03002C331800BB6809
:1014F000053B5A017B68013BDB001A43FB1C1B7850
:10150000002B01D0022300E000231A43FB1C1B78B0
:10151000012B01D1042300E0002313436E221900A4
:10152000FFF7A0FFC046BD4604B080BD80B582B0C5
:1015300000AF78607B68044A19001000FFF765FF70
:10154000C046BD4602B080BD00C0004080B582B03C
:1015500000AF78607B68094A19001000FFF764FF4C
:1015600001E0FFF74DFF054B9B68DB437A681340B2
:10157000F7D1C046BD4602B080BDC04600C00040A5
:1015800080B582B000AF78607B681800FFF780FFFD
:10159000031E02D080231B0401E08023DB0318001C
:1015A000FFF7C4FFC046BD4602B080BD80B582B023
:1015B00000AF78607B681800FFF76AFF031E02D057
:1015C00080231B0401E08023DB031800FFF7BEFF2C
:1015D000C046BD4602B080BD80B584B000AF786023
:1015E0003960062002F036F8031E01D1002333E0F3
:1015F0007B681800FFF7C4FF7B681800FFF7D6FF71
:101600007B680021180000F083F83A687B681100BD
:10161000180000F027F80300FB607868002301221F
:101620000821FFF754FF7B681800FFF743FF030012
:101630000B4A1A637B681800FFF73CFF03002C334A
:1016400010211800FFF7E1FE7B681800FFF732FF5A
:10165000030003229A64FB681800BD4604B080BDF5
:101660000103000080B586B000AF786039600620C5
:1016700001F0F0FF0300DB003968180004F09EF968
:101680000300FB60FB68DB097B61FB687F22134082
:1016900001335B083B617B69002B04D101237B6133
:1016A00000233B6107E07B69174A934203D9174B3C
:1016B0007B6100233B617B681800FFF7FBFE0300A2
:1016C0007A695A627B681800FFF7F4FE03003A69F2
:1016D0009A627B681800FFF7EDFE03002C330021AF
:1016E0001800FFF792FE062001F0B4FF03009800F7
:1016F0007B699A013B69D318190004F05FF9030074
:101700001800BD4606B080BDFEFF0000FFFF0000D0
:1017100080B582B000AF78600A00FB1C1A707B684D
:101720001800FFF7B5FE0200FB1C1B78002B01D050
:101730000A2101E080235900034B5200D152C046D8
:10174000BD4602B080BDC046601A002090B583B08F
:1017500000AF386079603B687C6818002100BD46A6
:1017600003B090BD90B585B000AFF8603A607B6083
:10177000FA683B687C6813605460C046BD4605B09B
:1017800090BD90B585B000AF786000F047FE0300D3
:101790000C000822B9181A0023000800FFF7E2FF26
:1017A0007A68BB68FC68136054607868BD4605B011
:1017B00090BD90B58BB000AFF8603A607B603B683D
:1017C0007C6818002100FFF7C1FF03000C00BB611B
:1017D000FC61B969FA69BB6BFC6B5B1854413B62F5
:1017E0007C62FA697B6A9A4207D8FA697B6A9A42F4
:1017F00008D1BA693B6A9A4204D901235B42DC17DB
:101800003B627C623B6A7C6A1022B9181A00230092
:101810000800FFF7A7FFFA683B697C691360546012
:10182000F868BD460BB090BDF0B585B000AFB860AC
:10183000F9603A607B603B687C6818002100FFF724
:1018400085FF05000E00BB68FC6818002100FFF74B
:101850007DFF03000C00ED1AA6412B003400180098
:101860002100BD4605B0F0BD80B582B000AF786004
:101870000A00FB1C1A70FB1C1B78002B05D07B6830
:101880001B7BFA1C12789A4205D9094B094A0A486F
:101890004D2101F097FC7B681968FB1C1A78130036
:1018A0005B009B18033BCB181800BD4602B080BDFF
:1018B000607E0010948000107C7E001080B584B0A3
:1018C00000AF786008001100FB1C021C1A70BB1CE2
:1018D0000A1C1A70FB1C1A787B6811001800FFF7AD
:1018E000C3FF0300FB60FB1C1B78002B05D11F4BC3
:1018F0001F4A2048532101F065FCBB1C1B78002BBC
:1019000005D11D4B1A4A1B48542101F05BFCFA1CFF
:10191000BB1C12781B789A4205D1184B144A154803
:10192000552101F04FFCBB1C1A787B681100180090
:10193000FFF79AFF0300BB60BB68FA1C12789A702D
:10194000FB681B78002B04D1FB68BA1C12781A7054
:1019500007E0FB681A78BB685A70FB68BA1C1278FB
:101960001A70C046BD4604B080BDC046D07E00108F
:10197000808000107C7E0010DC7E0010E87E00106D
:1019800090B583B000AF786008001100FB1C021C0A
:101990001A70BB1C0A1C1A70FB1C1B78002B02D18E
:1019A000BB1C1B7827E0BB1C1B78002B02D1FB1C47
:1019B0001B7820E07B685C687B689868BB1C1A78A1
:1019C000FB1C1B781900A047031E0AD0BB1C1A7809
:1019D000FB1C19787B681800FFF770FFFB1C1B7855
:1019E00009E0FB1C1A78BB1C19787B681800FFF70C
:1019F00065FFBB1C1B781800BD4603B090BD80B5C9
:101A000084B000AF78607B689B7B002B01D1002302
:101A10001AE00F23FB187A68927B1A700F23FB18C9
:101A20001A787B6811001800FFF71EFF03005A7830
:101A30007B689A737B689B7B002B02D17B680022BA
:101A4000DA730F23FB181B781800BD4604B080BD65
:101A500080B584B000AF78600A00FB1C1A70FB1CD4
:101A60001B78002B05D1164B164A1748772101F039
:101A7000A9FBFB1C1A787B6811001800FFF7F4FE25
:101A80000300FB60FB6800229A70FB689A78FB6891
:101A90005A70FB685A78FB681A707B68597BFB1C8C
:101AA0001A787B681800FFF76BFF03001A007B6849
:101AB0005A737B685B7B1800BD4604B080BDC0468E
:101AC000007F0010C48000107C7E001080B582B0C2
:101AD00000AF78607B685B7B1800BD4602B080BDBC
:101AE00080B582B000AF78600A00FB1C1A707B687A
:101AF0005B7BFA1C12789A420AD0FB1C1A787B682E
:101B000011001800FFF7B0FE03009B78002B01D0F6
:101B1000012300E000231A1C01231340DBB218004C
:101B2000BD4602B080BD000080B582B000AF7860D5
:101B30000A00FB1C1A70FB1C1B78002B08D0FB1C36
:101B40001A787B6811001800FFF7CAFF031E05D042
:101B50000E4B0F4A0F488F2101F034FB7B68DB7B73
:101B6000002B0AD07B68DA7B7B6811001800FFF736
:101B70007BFE0200FB1C1B7853707B68FA1C1278FA
:101B8000DA73C046BD4602B080BDC046047F001077
:101B9000EC8000107C7E001080B500AFBFF35F8F3B
:101BA000C046BD4680BD80B500AFFFF7F5FFC0461B
:101BB000BD4680BD80B500AFFFF7EEFFC046BD4615
:101BC00080BD80B582B000AFEFF310837B6072B64A
:101BD0007B681800BD4602B080BD80B582B000AF02
:101BE00078607B6883F31088C046BD4602B080BD34
:101BF00080B582B000AF78607B68044A9446634445
:101C00009B001800BD4602B080BDC04640000034B5
:101C100080B582B000AF7860C0467B681B685A42CE
:101C20005341DBB2002BF8D1FFF7BDFFC046BD46E4
:101C300002B080BD80B582B000AF7860FFF7BAFF18
:101C40007B6800221A60C046BD4602B080BD80B5E8
:101C500084B000AF7860FFF7B4FF0300FB607B68DF
:101C60001800FFF7D5FFFB681800BD4604B080BD23
:101C700080B582B000AF786039607B681800FFF7EC
:101C8000D9FF3B681800FFF7A8FFC046BD4602B069
:101C900080BD000080B500AF064B1B68002B06D14D
:101CA0001021032000F0B2FA0200024B1A60C04675
:101CB000BD4680BDF00F002080B582B000AF7860D7
:101CC0000A00FB1C1A70FB1C1B78002B06D07B68DB
:101CD0001B681B7BFA1C12789A4205D9094B0A4AE9
:101CE0000A483B2101F06EFA7B689A68FB1C1B785E
:101CF00007498C4663441B01D3181800BD4602B047
:101D000080BDC046787F0010A0800010387F001092
:101D1000FFFFFF0F80B582B000AF78600A00FB1CA8
:101D20001A70FB1C1B78002B06D07B681B681B7B82
:101D3000FA1C12789A4205D9074B084A08484021F4
:101D400001F040FA7B68DA68FB1C1B78013BD31872
:101D50001800BD4602B080BD787F001000810010E1
:101D6000387F0010B0B584B000AF78600800110073
:101D7000FB1C021C1A70BB1C0A1C1A707B68FB60DF
:101D8000FB1C1A78FB6811001800FFF795FF030091
:101D90005C681B6818002100FFF7D8FC04000D00E8
:101DA000BB1C1A78FB6811001800FFF785FF0300C1
:101DB0001A685B6810001900FFF7C8FC02000B00EE
:101DC0000121AB4204D801D1A24201D80023191C41
:101DD000CBB21800BD4604B0B0BD80B582B000AF34
:101DE0000200FB1D1A70BB1D0A1C1A70FB1D1B781C
:101DF0001A02BB1D1B7813431800BD4602B080BDFC
:101E0000B0B588B000AFF8603A607B60BB6B002B68
:101E100017D0FB681B68BA6BD2B211001800FFF72D
:101E20005FFE03001A0001235340DBB2002B05D1F3
:101E3000314B324A3248512101F0C4F9BB6BFB618E
:101E400006E0FB681B681800FFF7D9FD0300FB6183
:101E5000FB69002B4BD0FB69DAB2FB68110018005C
:101E6000FFF72AFF0300BB61BA693B687C68136017
:101E70005460BB693A6B9A60BB697A6BDA60FB6845
:101E80001B68FA69D2B211001800FFF7E1FD0300E8
:101E90001A00FB699A422AD1FB681B7D190017239F
:101EA000FD183B687C681A002300080000F0C8FB9E
:101EB00003002B701723FB181B78002B0FD03C233B
:101EC000FB181B7801225340DBB2002B07D0FB68C4
:101ED0001B68FA69D2B21100180000F0BDFF3B6C1C
:101EE000002B04D03B6C1722BA1812781A70FB69C9
:101EF0001800BD4608B0B0BD9C7F0010AC8000103B
:101F0000387F001090B59FB006AF7860B94B7A6803
:101F10009200D358FB641023FB181800FFF731FC24
:101F20000023BB6500230024BB60FC6000237B65AD
:101F30005F23FB1800221A70FB6C5B681800FFF728
:101F400086FE0300BB64FB6C1B684722BC181800AC
:101F5000FFF7BCFD030023704723FB181B78002B01
:101F600000D16FE04723FB181A78FB6C11001800B2
:101F7000FFF7A2FE03003B643B6C5C681B6838699A
:101F800079691A002300FFF74FFC03000C00002CB6
:101F900049DC01D1002B46D1FB6C1B683F22BC18E9
:101FA0000121180000F034FF030023703F23FA18CA
:101FB0004723FB1812781B789A4205D08E4B8F4A24
:101FC0008F48782101F0FEF83B6C5C681B68BB60B1
:101FD000FC603B6C9B68BB653B6CDB687B65BB6DE9
:101FE000002B05D1874B854A85487C2101F0EAF812
:101FF0004723FB181A78FB6C11001800FFF78AFEC4
:1020000002005323FB1812781A703F23FB181A782A
:102010005323FB181B7811001800FFF7DEFE0200A7
:10202000FB6C1A610EE03B6C5C681B6879681A00F7
:102030002300080000F004FB031E03D05F23FB18FD
:1020400001221A70FB6C5B68BA6C11001800FFF774
:102050000FFEBB6D002B00D1C2E04723FB181A789E
:102060005323FB181B7811001800FFF7B6FE7A6D9A
:10207000BB6D1100984703000C003B637C63FB6C55
:102080005B681800FFF7E3FD0300BB647B6B002B6C
:102090003BDAFB6C1B69002B37D0FB6C1C694723B8
:1020A000FB181A785323FB181B7811001800FFF750
:1020B00094FE03009C4205D0534B504A50488B215C
:1020C00001F080F83B6B7C6B00225942A24118233F
:1020D000F818BB68FC68009101921A002300FFF712
:1020E00068FB4723FB181A78BB69FC69F86C002170
:1020F00004910121039102927A6D0192BA6D0092CE
:102100001A002300FFF77CFE5CE07B6B002B05DCF4
:102110007B6B002B40D13B6B002B3DD0FB6C1B69D4
:10212000002B39D0FB6C1C694723FB181A7853230A
:10213000FB181B7811001800FFF74FFE03009C42AC
:1021400005D0314B2D4A2E488E2101F03BF820233B
:10215000FB181800FFF715FB3B6B7C6B2822B818A7
:10216000396A7A6A0093019413000A00FFF721FB91
:102170004723FB181A78BB6AFC6AF86C00210491AB
:102180000121039102927A6D0192BA6D00921A00B8
:102190002300FFF735FE15E0FB6C1A684723FB1898
:1021A0001B7819001000FFF7BFFC4723FB181A78B3
:1021B000FB6C11001800FFF7ADFD03001A78013227
:1021C000D2B21A70FB6C00221A61FB6C5B68BA6CAD
:1021D00011001800FFF74CFD5F23FB1801221A7055
:1021E0005F23FB181B78002B00D094E6C046BD4649
:1021F00019B090BD20130020C07F0010D0800010C7
:10220000387F0010D87F0010E47F001080B584B0C4
:1022100000AF786039607B68180000F0E9F87B68EF
:10222000180000F0BDFA1E4A7B681100180000F08B
:1022300099F9182004F0F3FB0300FB60FFF7BAF8EC
:1022400003001800FFF7D4FC0200FB685A60FA682C
:1022500014493B68180000F080FC0200FB681A601B
:102260003B681021180004F0F0FB03001A00FB6823
:102270009A603B680121180004F0E7FB03001A0094
:10228000FB68DA607B68DAB2FB681A75064B7A681D
:102290009200F968D150FB681800BD4604B080BDBB
:1022A000051F0010651D00102013002090B583B09D
:1022B00000AF386079603B687C6818002100BD463B
:1022C00003B090BD80B582B000AF786039607B68A4
:1022D0008022920113433A681A60C046BD4602B09C
:1022E00080BD80B582B000AF7860C046BD4602B008
:1022F00080BD80B500AFBFF35F8FC046BD4680BDD7
:1023000080B500AFFFF7F5FFC046BD4680BD80B584
:1023100000AFFFF7EEFFC046BD4680BD80B582B07E
:1023200000AFEFF310837B6072B67B681800BD4688
:1023300002B080BD80B582B000AF78607B6883F367
:102340001088C046BD4602B080BD000080B582B096
:1023500000AF78607B68044A944663449B00180091
:10236000BD4602B080BDC0464000003480B582B09A
:1023700000AF7860C0467B681B685A425341DBB2AD
:10238000002BF8D1FFF7BCFFC046BD4602B080BDB0
:1023900080B582B000AF7860FFF7B9FF7B6800229C
:1023A0001A60C046BD4602B080BD80B584B000AFA3
:1023B0007860FFF7B3FF0300FB607B681800FFF74E
:1023C000D5FFFB681800BD4604B080BD80B582B063
:1023D00000AF786039607B681800FFF7D9FF3B6871
:1023E0001800FFF7A7FFC046BD4602B080BD000041
:1023F00080B582B000AF78607B681800FFF771FF8E
:10240000044A7968044B1800FEF757FFC046BD46E2
:1024100002B080BD1481001044190020F0B587B0CF
:1024200000AF1548406A78611348806A38611248E5
:10243000406AF86078698446F868844502D0F86894
:102440007861F1E7C04678693860002078603868C4
:102450000400002003003869010000200200180079
:1024600008430500230013431E002B00340018000E
:102470002100BD4607B0F0BD0040054080B582B0E8
:1024800000AF78607B681800BD4602B080BD0000D8
:1024900080B586B000AFEFF305833B613B693F2217
:1024A0001340103BFB60FB681800FFF71AFF002386
:1024B0007B610A20FFF74AFF0300BB60BB6818007E
:1024C000FFF773FF03007B60224B0121FA68914004
:1024D0000A005A63204B1B781A00FB68DA4013008D
:1024E0000122134024D01B4B5A6A1C4BF968890007
:1024F000CB589A4212D31A4BFA689200D3587B6198
:102500000122FB689A401300DBB2DB43DBB2124AC4
:1025100012781340DAB2104B1A7009E00D490D4AD7
:10252000FB6804339B009A58FB6804339B005A50A5
:102530007A68BB6811001800FFF748FF7B69002B21
:1025400003D0FA687B6910009847C046BD4606B0C4
:1025500080BDC046004005404719002030190020CA
:10256000B80B002080B586B000AF786039607B681A
:102570001800FFF7B6FE7B681800FFF77FFF030027
:102580007B610A20FFF7E2FE03003B613B69180014
:10259000FFF70BFF0300FB603B68002B21D07B693A
:1025A000180001F075FA0200214B9A4213D0204A1C
:1025B0007B691100180001F07FFA7B690121180086
:1025C00001F004FA01227B689A401300194A1900AD
:1025D0001000FFF777FE184B7A6892003968D150E7
:1025E0001CE0154B7A6892000021D15001227B68D3
:1025F0009A401300DBB2DB43DBB2104A127813407F
:10260000DAB20E4B1A700A4A7B691100180001F009
:1026100021FB7B690021180001F0D8F9FA683B69B9
:1026200011001800FFF7D2FEC046BD4606B080BDBF
:102630009124001038400540B80B002047190020B5
:10264000F0B58DB000AFF8603A607B60FFF7E6FE52
:1026500003000C003B627C623B687C681800210030
:10266000FFF724FE03000C00BB61FC61FA697B6A82
:102670009A420CD8FA697B6A9A4203D1BA693B6ADA
:102680009A4204D82F23FB1801221A7074E02F23DA
:10269000FB1800221A700A20FFF758FE03007B6126
:1026A0007B691800FFF781FE03003B61364B012177
:1026B000FA6891400A005A630122FB689A401300AD
:1026C000DAB2324B1B781343DAB2304B1A702E4910
:1026D000BA69FB6804339B005A50FB691D00002354
:1026E0001E0029002A4BFA689200D150264B1B6A23
:1026F0000121FA6891400A0013400DD1224B1B6C56
:102700000121FA6891400A0013402FD1214B224A3F
:102710002248B22100F056FDFFF780FE03000C00B6
:10272000FA69A24222D8FA69A24202D1BA699A424F
:102730001CD82F23FB1801221A70134B0121FA68B1
:1027400091400A001A62104B0121FA6891400A0078
:102750005A630122FB689A401300DBB2DB43DBB211
:102760000A4A12781340DAB2084B1A703A697B6948
:1027700011001800FFF72AFE2F23FB181B78180002
:10278000BD460DB0F0BDC0460040054047190020D1
:102790003019002038810010A88100105C810010E1
:1027A00080B584B000AF78607B681800FFF799FDB2
:1027B0000A20FFF7CBFD0300FB60FB681800FFF762
:1027C000F4FD0300BB600E4B01217A6891400A00C2
:1027D0001A6201227B689A401300DBB2DB43DBB252
:1027E000084A12781340DAB2064B1A70BA68FB68CE
:1027F00011001800FFF7EAFDC046BD4604B080BDD9
:10280000004005404719002080B582B000AF7860D5
:102810007B68044A944663449B001800BD4602B09E
:1028200080BDC0464000003480B582B000AF786003
:1028300039603B681F2B05D9084B094A09480A2112
:1028400000F0C0FC3B681800FFF7DEFF02007B6869
:102850001A60C046BD4602B080BDC046C4810010AB
:1028600034820010F081001080B500AF40BFC04638
:10287000BD4680BD80B500AF20BFC046BD4680BD0F
:1028800080B500AFBFF35F8FC046BD4680BD80B549
:1028900000AFFFF7F5FFC046BD4680BD80B500AF75
:1028A000FFF7EEFFC046BD4680BD80B582B000AFE9
:1028B000EFF310837B6072B67B681800BD4602B0F0
:1028C00080BD80B582B000AF78607B6883F31088EC
:1028D000C046BD4602B080BD80B582B000AF786012
:1028E000C0467B681B685A425341DBB2002BF8D1CB
:1028F000FFF7CDFFC046BD4602B080BD80B582B0B7
:1029000000AF7860FFF7CAFF7B6800221A60C046FC
:10291000BD4602B080BD80B584B000AF7860FFF7DF
:10292000C4FF0300FB607B681800FFF7D5FFFB685E
:102930001800BD4604B080BD80B582B000AF78609D
:1029400039607B681800FFF7D9FF3B681800FFF774
:10295000B8FFC046BD4602B080BD80B500AFD023F1
:102960001B061B681800BD4680BD90B583B000AF44
:1029700078607C68FEF71EFD030019002000FFF759
:1029800053FF7B68FF221A71FFF788FFC046BD46E0
:1029900003B090BD80B582B000AF78600A00FB1C28
:1029A0001A70FB1C1B78002B05D07B681B7BFA1C64
:1029B00012789A4205D9094B094A0A484D2100F07C
:1029C00001FC7B681968FB1C1A7813005B009B18DC
:1029D000033BCB181800BD4602B080BDC882001072
:1029E00060840010E482001080B584B000AF78608D
:1029F00008001100FB1C021C1A70BB1C0A1C1A7078
:102A0000FB1C1A787B6811001800FFF7C3FF030056
:102A1000FB60FB1C1B78002B05D11F4B1F4A204875
:102A2000532100F0CFFBBB1C1B78002B05D11D4BA5
:102A30001A4A1B48542100F0C5FBFA1CBB1C127833
:102A40001B789A4205D1184B144A1548552100F0BD
:102A5000B9FBBB1C1A787B6811001800FFF79AFFBE
:102A60000300BB60BB68FA1C12789A70FB681B7885
:102A7000002B04D1FB68BA1C12781A7007E0FB68BF
:102A80001A78BB685A70FB68BA1C12781A70C04674
:102A9000BD4604B080BDC046388300104C84001091
:102AA000E4820010448300105083001090B583B07E
:102AB00000AF786008001100FB1C021C1A70BB1CE0
:102AC0000A1C1A70FB1C1B78002B02D1BB1C1B7844
:102AD00027E0BB1C1B78002B02D1FB1C1B7820E0DD
:102AE0007B685C687B689868BB1C1A78FB1C1B7849
:102AF0001900A047031E0AD0BB1C1A78FB1C1978CA
:102B00007B681800FFF770FFFB1C1B7809E0FB1CBB
:102B10001A78BB1C19787B681800FFF765FFBB1C8F
:102B20001B781800BD4603B090BD80B582B000AFE1
:102B300078607B685B7B1800BD4602B080BD80B5C5
:102B400082B000AF78607B680021180000F060F967
:102B500003001800BD4602B080BD80B586B000AF4E
:102B6000F860B9607A601021012003F06EFF030065
:102B70007B61FB68DAB27B691A737B69BA685A6059
:102B8000FB680321180003F060FF03001A007B6953
:102B90001A607B697A689A607B69180000F005F812
:102BA0007B691800BD4606B080BD80B584B000AF1B
:102BB00078607B6800225A737B6801229A737B6875
:102BC0001A7B7B68DA730123FB600FE0FB68DAB2E3
:102BD0007B6811001800FFF7DDFE0200FB68DBB226
:102BE0000133DBB25370FB680133FB607B681B7BF6
:102BF0001A00FB689A42E9D87B681A7B7B6811004F
:102C00001800FFF7C7FE030000225A70C046BD46F9
:102C100004B080BD90B585B000AF78600A00FB1CA1
:102C20001A70FB1C1B78002B0AD0FB1C1A787B68DF
:102C300011001800FFF7AEFE03005B78002B02D1F5
:102C4000FB1C1B784FE00F23FB18FA1C12781A703C
:102C5000FB1C1A787B6811001800FFF79BFE02002E
:102C60000E23FB1852781A700E23FB181A787B6813
:102C700011001800FFF78EFE02000D23FB1852789A
:102C80001A700F23FB181A787B6811001800FFF7E1
:102C900081FE04000E23FB181A787B6811001800CF
:102CA000FFF778FE030000225A705B7863700E23F2
:102CB000FB181A780F23FB1819787B681800FFF7A8
:102CC000F5FE03001C000D23FB181A787B68110029
:102CD0001800FFF79FFF03001A007B68210018000F
:102CE000FFF7E4FE03001800BD4605B090BD0000EC
:102CF00090B585B000AF786008001100FB1C021C85
:102D00001A70BB1C0A1C1A70FB1C1B78002B05D107
:102D10003A4B3B4A3B48332100F054FAFB1C1A78EB
:102D20007B6811001800FFF735FE03005B78002B6D
:102D300005D0354B324A3348352100F043FAFB1CAD
:102D40001A787B6811001800FFF724FE03009B78B7
:102D5000002B05D02D4B2A4A2A48362100F032FAA2
:102D6000FB1C1A787B6811001800FFF713FE0300A4
:102D70001A780F23FC187B6811001800FFF74AFF30
:102D800003002370BB1C1B7801225340DBB2002BD5
:102D900012D07B68DB7B002B0AD07B68DA7B7B68F8
:102DA00011001800FFF7F6FD0200FB1C1B785370A2
:102DB0007B68FA1C1278DA730F23FB181B78002B40
:102DC0000AD00F23FB181A787B6811001800FFF750
:102DD000E1FD030000229A70FB1C1A787B68110049
:102DE0001800FFF7D7FD030000225A700F23FB18CD
:102DF0001B781800BD4605B090BDC0466883001022
:102E00006C84001070830010B0830010D883001011
:102E100090B585B000AF78600A00FB1C1A700F23D4
:102E2000FC187B681800FFF780FE03002370FB1C72
:102E30001A780F23FB1819787B681800FFF758FFE2
:102E400003001A007B685A730F23FB181B781800C5
:102E5000BD4605B090BD000090B589B000AF786068
:102E60000A00FB1C1A70FB1C1B78002B01D10023ED
:102E700092E07B685B7BFA1C12789A4205D17B68F2
:102E80001800FFF75CFE012386E0FB1C1A787B68C4
:102E900011001800FFF77EFD0300BB61BB699B7842
:102EA000002B01D1002377E0BB699A787B68110081
:102EB0001800FFF76FFD03007B617B691B78FA1C2C
:102EC00012789A4204D1BB695A787B691A7036E04D
:102ED0001F23FB187A6912781A701E23FB18002230
:102EE0001A701F23FB181A787B6811001800FFF76F
:102EF00051FD03003B613B695B78FA1C12789A42F2
:102F000008D1BB695A783B695A701E23FB1801220D
:102F10001A7009E01F23FB183A6952781A701F23B0
:102F2000FB181B78002BDCD11E23FB181B78002B11
:102F300005D11B4B1B4A1C48632100F043F9BB69B8
:102F400000229A70BB699A78BB695A700F23FC18EB
:102F5000FB1C19787B6800221800FFF7C9FE0300EC
:102F600023707B685B7B0F22BA1812789A4205D1D6
:102F70000E4B0C4A0C48692100F024F97B68597B00
:102F80000F23FB181A787B681800FFF78FFD0300EA
:102F90001A007B685A7301231800BD4609B090BD22
:102FA000FC830010808400107083001004840010E3
:102FB00080B500AF00BEC046BD4680BD80B500AF45
:102FC000C046BD4680BD80B582B000AF7860396034
:102FD0007B688022920113433A681A60C046BD465E
:102FE00002B080BD80B582B000AF786039607B6888
:102FF000C022920113433A681A60C046BD4602B02F
:1030000080BD000080B582B000AF78607B68044A64
:1030100019001000FFF7D7FFC046BD4602B080BDC3
:1030200000C0004080B582B000AF78607B68094A7C
:1030300019001000FFF7D6FF01E0FFF7BFFF054BB7
:103040009B68DB437A681340F7D1C046BD4602B0A7
:1030500080BDC04600C0004090B585B000AF2F4B8A
:103060001800FFF7CFFF2E4B1800FFF7DBFF2D4BAB
:10307000FB6005E0FB681B689847FB680433FB6056
:10308000FA68294B9A42F5D300F040FA274B180012
:10309000FFF7C8FF264A26492548254C4023A36749
:1030A00043670B67D366234BBB6006E0BB68180021
:1030B000FFF75BFCBB680833BB60BA681E4B9A42E3
:1030C000F4D31E4B9B681A001D4B18001100C0233F
:1030D0001A0003F0E1FC194B194A9A60EFF30383DD
:1030E0003B603B68FF22134000D000BEFEF749F969
:1030F00000F0A4FFFEF7CEFD124B7B6005E07B687D
:103100001B6898477B6804337B607A680E4B9A4251
:10311000F5D3C046BD4605B090BDC046BFCDFFFF4C
:10312000FE7F3C00500B0020600B0020FFFFFF01E2
:1031300000F00140480B0020500B002000ED00E0A3
:1031400000000020600B0020640B002080B582B0DE
:1031500000AF7860FFF72CFFFCE7000080B584B07B
:1031600000AF7860104B1B68002B02D10E4B0F4A4A
:103170001A600D4B1B68FB600B4B1A687B68D318F9
:10318000BB60B9680A4A002391425B41DBB2002B65
:1031900002D001235B4203E0034BBA681A60FB686C
:1031A0001800BD4604B080BDFC0F00206C1C002040
:1031B0000000042080B582B000AF78607B68180002
:1031C000FFF7C4FFB0B586B002AFF860B9607A60AF
:1031D0003B607B68002B01D00A4B00E00A4B7A6809
:1031E000002A01D07A6800E0074ABD68FC683968A7
:1031F0000648019200932B00220003F061FE01209B
:10320000FFF7A4FF8C8400109C840010A0840010A1
:103210000FB480B582B000AF0B4B180003F052FD25
:103220003B69002B0CD01423FB187B607A683B6948
:103230001100180003F00EFE044B180003F042FDCD
:103240000120FFF783FFC046E0840010F0840010E7
:1032500080B500AFC046BD4680BD80B582B000AF2E
:10326000786039607B688022920113433A681A6063
:10327000C046BD4602B080BD80B582B000AF786068
:1032800039607B68C022920113433A681A60C046D5
:10329000BD4602B080BD80B582B000AF78603960B5
:1032A0007B688022520113433A681A60C046BD46CB
:1032B00002B080BD80B584B000AFF860B9607A60BC
:1032C000FB681A68BB6853407A681A40FB681100B3
:1032D0001800FFF7E0FFC046BD4604B080BD000007
:1032E00080B582B000AF78607B68044A1900100096
:1032F000FFF7B3FFC046BD4602B080BD00C000402E
:1033000080B582B000AF78607B68094A1900100070
:10331000FFF7B2FF01E0FFF79BFF054B9B68DB4324
:103320007A681340F7D1C046BD4602B080BDC046A2
:1033300000C0004080B582B000AF0200FB1D1A70D3
:10334000FB1D1B78052B03D0FB1D1B78042B01D123
:10335000012300E000231A1C01231340DBB21800F4
:10336000BD4602B080BD0000B0B58CB000AFB96101
:103370007A613B610F2310229446BC446344021CD3
:103380001A703A693B6C9A4205D25B4B5B4A5C48C7
:103390002E21FFF717FF3A6C3B699A4201D90023AF
:1033A000A5E03B691C0000231D00230EFB602302E7
:1033B000BB603B6C3B6000237B603A687B68B8680D
:1033C000F96802F041FB03000C00FB620F2310229E
:1033D0009446BC4463441A7813005B009B189B001E
:1033E000484A94466344BB62BB6A5A68FB6A9A4285
:1033F00002D2BB6AFA6A5A600F2310229446BC4478
:1034000063441B781800FFF795FF031E10D0BB69BB
:10341000012B0DD1BB6A03211800FFF72DFF01E03E
:10342000FFF716FFBB6A9B6801221340F8D026E025
:10343000BA6A80231B0119001000FFF71DFF0F233C
:1034400010229446BC4463441A782F4B9200D35800
:10345000002B14D02C4B58690F2310229446BC44E7
:1034600063441A78284B9200D358190002F0A6FA48
:10347000030001337B627B6A013BFDD17B62B86A4A
:103480007B695B01E0221900FFF714FF0F23102274
:103490009446BC4463441B781800FFF74BFF031E9F
:1034A00010D0BB6AB96903221800FFF703FF01E0DF
:1034B000FFF7CEFEBB6A9B680121BA6991400A0002
:1034C0001340F5D0BA6A80231B0119001000FFF7E2
:1034D000C4FEBB6AFA6A5A600F2310229446BC44A9
:1034E00063441A78084B9200396CD15001231800BC
:1034F000BD460CB0B0BDC04600850010048600106B
:103500001485001000800040C80F002080B584B0F2
:1035100002AF0C2000F0B0F8FDF764FF031E11D0DD
:1035200000237B6007E03F4B7A6892003E49D15010
:103530007B6801337B607B68092BF4D9394B3B4AAC
:103540005A626CE03A4B00229A6700F0B5F8394BAA
:1035500001211800FFF790FE01E0FFF779FE344BE0
:103560005B6C012BF9D1344B03211800FFF784FE6B
:1035700001E0FFF76DFE2E4B9B6B012BF9D1C023B1
:103580009B011800FFF7ACFEC0239B011800FFF75A
:10359000B7FE2A4A2A48022300930623012100F09D
:1035A000BFF8284A2848022300930523012100F090
:1035B000B7F8264A254B009313000022022104206D
:1035C000FFF7D2FE224A224B009313000022012172
:1035D0000520FFF7C9FE144A134B00931300002285
:1035E00000210720FFF7C0FE0F4A0F4B0093130086
:1035F000002200210820FFF7B7FE0B4A0B4B009377
:103600001300002200210920FFF7AEFE104A104BE4
:1036100000931300002200210620FFF7A5FEBD46FF
:1036200002B080BDC80F0020006CDC021BB7000098
:10363000008000403C80004030800040002F6859EE
:103640000080024000389C1C00C00240001BB700F4
:103650004059730780B582B000AF0200FB1D1A709D
:10366000FB1D1A78034B9200D3581800BD4602B0D8
:1036700080BDC046C80F002080B582B000AF786022
:10368000044B7A68802189000A43DA62C046BD464D
:1036900002B080BD0080054080B582B000AF786088
:1036A00039607B688022920113433A681A60C046F1
:1036B000BD4602B080BD000080B582B000AF0C4BAB
:1036C000AA2212011A602F237B60094B7A68DA6004
:1036D000084A074B11001800FFF7DEFFC046044BF5
:1036E0005B68002BFBDAC046BD4602B080BDC04619
:1036F0000040024000B0FA0080B500AFC046BD46B1
:1037000080BD80B582B000AF786039607B68C02230
:10371000920113433A681A60C046BD4602B080BDAC
:1037200080B588B000AFF860B9607A603B60FB6834
:10373000012252425A60FB6800229A60B9680C204C
:1037400002F03CF90300FB61FB68BA681A60FB6990
:10375000354A53431900786802F030F90300BB6121
:10376000BB690F2B04D9BA69A0235B009A4205D923
:103770002E4B2F4A2F481A21FFF724FD3B68002BC0
:103780000CD03B68072B09D82823FB181B78002B8B
:1037900004D02823FB181B78072B05D9264B244A75
:1037A00024481D21FFF70EFD2823FB181A783B68DB
:1037B0009A4205D9214B1E4A1E482321FFF702FDDC
:1037C0007B681A09FB699A4205D21D4B184A1948B1
:1037D0002721FFF7F7FCFB68BA699A6021237B6118
:1037E000FB6804337A6911001800FFF78AFF01E0D3
:1037F000FFF782FFFB681B68002BF9DA3B681B04AC
:103800002822BA181278120313433B61FB683A6905
:10381000DA60FB68043308211800FFF772FFC04626
:10382000BD4608B080BDC04640420F00148600105F
:10383000F88600103086001078860010C4860010CC
:10384000DC86001080B500AFBFF35F8FC046BD4679
:1038500080BD80B500AFFFF7F5FFC046BD4680BD17
:1038600080B500AFFFF7EEFFC046BD4680BD80B516
:1038700082B000AFEFF310837B6072B67B681800F4
:10388000BD4602B080BD80B582B000AF78607B6875
:1038900083F31088C046BD4602B080BD80B582B0BB
:1038A00000AF78607B68044A944663449B0018002C
:1038B000BD4602B080BDC0464000003480B582B035
:1038C00000AF7860C0467B681B685A425341DBB248
:1038D000002BF8D1FFF7BDFFC046BD4602B080BD4A
:1038E00080B582B000AF7860FFF7BAFF7B68002236
:1038F0001A60C046BD4602B080BD80B584B000AF3E
:103900007860FFF7B4FF0300FB607B681800FFF7E7
:10391000D5FFFB681800BD4604B080BD80B582B0FD
:1039200000AF786039607B681800FFF7D9FF3B680B
:103930001800FFF7A8FFC046BD4602B080BD0000DA
:1039400080B500AF024B9B681800BD4680BDC046E5
:1039500000ED00E080B582B000AF78607B680122A6
:1039600013431800BD4602B080BD80B582B000AFE1
:1039700078607B68012293431800BD4602B080BD89
:1039800080B584B000AFF860B9607A60FFF7D8FF07
:103990000200FB6810339B00D318BA681A60FFF767
:1039A00051FF0920FFF77AFF02007B681900100021
:1039B000FFF7B4FFC046BD4604B080BD80B582B0FD
:1039C00000AF7860C046BD4602B080BD80B582B011
:1039D00000AF78600A00FB1C1A707B681800FFF7C4
:1039E000EDFF01227B689A40FB1C1B781900100038
:1039F00000F01CF8C046BD4602B080BD80B582B064
:103A000000AF78607B681800FFF7D8FF01227B6861
:103A10009A40054B1B6813405A1E9341DBB21800B5
:103A2000BD4602B080BDC04600E100E080B582B076
:103A300000AF78600A00FB1C1A70FB1C1B78002B7F
:103A400006D0074B7A681A60064B7A681A6002E063
:103A5000054B7A681A60C046BD4602B080BDC046BC
:103A600080E200E000E100E080E100E080B582B0AB
:103A700000AF78607A68054BD21A2F21002391425B
:103A80005B41DBB21800BD4602B080BD7C02002065
:103A900080B582B000AF78607B681800FFF78EFFBA
:103AA000FFF74EFF02007B6810339B00D3181B68A2
:103AB0001800BD4602B080BD80B586B000AF78600A
:103AC00039607B681800FFF779FF0920FFF7E6FEF1
:103AD00003007B617B691800FFF70FFF03003B6168
:103AE0007B681800FFF7D4FF0300FB60FA680B4BFC
:103AF0009A4209D0FA683B689A4205D0084B094AB5
:103B000009487121FFF75EFB3A6939687B68180044
:103B1000FFF736FFC046BD4606B080BDCD010010A0
:103B200004870010D88800103C87001080B586B04C
:103B300000AF786039607B687B613B683B613A69C4
:103B40007B69D31A043B5B08FB60FB68DB0A05D08A
:103B5000084B094A09488D21FFF734FBFB689BB2EB
:103B60005B055B0D9BB2064A13439BB21800BD4632
:103B700006B080BD84870010F48800103C870010D8
:103B800000E0FFFF80B586B000AF786039607B68E9
:103B90007B613B683B613A697B69D31A043B5B08F4
:103BA000FB60FB68DB0A05D00E4B0F4A0F489521DE
:103BB000FFF708FBFB68DB0A9BB25B055B0D9BB262
:103BC0000B4A13439AB27B681A807B680233FA6807
:103BD00092B208490A4392B21A80C046BD4606B066
:103BE00080BDC04684870010008900103C8700100B
:103BF00000F0FFFF00F8FFFF80B584B000AF7860F1
:103C00007B681B88DB0A9BB21C2B05D00D4B0E4A30
:103C10000E489B21FFF7D6FA7B681B885B05FB608B
:103C2000FB68002B02DA0A4A944663445B15FB608A
:103C3000FB6802335B007A68D3181800BD4604B0F5
:103C400080BDC04694870010188900103C87001082
:103C5000FFFF1F0090B58FB000AF7860396009207A
:103C6000FFF71CFE0300BB62BB6A1800FFF745FEAE
:103C700003007B62FFF764FE02007B6810339B0049
:103C8000D3181B687B637A6B704B9A4200D1D0E0EB
:103C90007A6B3B689A4200D1CBE07B6B1800FFF750
:103CA000E5FE031E00D1C6E02323FC187B68180044
:103CB000FFF7A4FE030023707B6800211800FFF7C4
:103CC00085FEFFF7BFFDFCF7CEFA0300FB61FB6941
:103CD000002B0DD07B6810331A00FB699A4207D085
:103CE0005B4C5C4A8E2359005B482300FFF76AFA5D
:103CF00000233B637B6B1800FFF737FE0300BB61BB
:103D0000BB69FB62FA6A554BD31A9B10544A534362
:103D10007B6111E0FB6A3B63FB6A9B795BB2002B22
:103D200010DBFB6A9B795BB21A0013005B009B18E7
:103D30009B004A4A9B18FB62FB6A9A683B689A425E
:103D4000E8D100E0C046FB6A9A683B689A425ED1BF
:103D5000FB6A9B795BB23B613B69002B36DB3A69BE
:103D600013005B009B189B003C4A9B18FB60FB68A0
:103D70009A68FB6A9A60FB68DA79FB6ADA71FB6819
:103D800006229A56FB6A9A71FB689B795BB2002BFC
:103D90000EDBFB6A1C1DFB6804331800FFF72CFFC9
:103DA000030019002000FFF7C1FE03001A0001E024
:103DB000BD231A02FB6A9A802A4B00229A56FB689E
:103DC0009A713B695AB2274B1A7029E0FB69002BA4
:103DD00015D13B6B002B06D03B6BFF229A713B6BDE
:103DE000214A9A8001E0194B7B631E4B00229A56B0
:103DF000FB6A9A717B695AB21A4B1A7010E0FB6A1F
:103E000004331A4A11001800FFF7BCFE08E0184CF2
:103E1000104A5223FF3319000F482300FFF7D2F94D
:103E20002323FB181A787B6811001800FFF7CEFDDA
:103E300001E0064B7B637A6A796B7B681800FFF7B9
:103E40009FFDC046BD460FB090BDC046CD010010DD
:103E500070880010288900103C8700107C02002028
:103E6000ABAAAAAA4619002000BDFFFFB602002097
:103E70009488001080B584B000AF78600A00FB1C05
:103E80001A707B681800FFF799FD7B680322934343
:103E90000E4A94466344FB60FB681B687A68032102
:103EA0000A40D200FF2191400A00D2431A40FB1C75
:103EB00019787B6803200340DB0099400B001A430C
:103EC000FB681A60C046BD4604B080BD00E400E057
:103ED00090B58BB000AF78607B681800FFF73AFDB3
:103EE0000300FB61FB691800FFF7C0FD031E07D14B
:103EF000484C494AB723590048482300FFF762F964
:103F0000FCF7B1F90300BB61BB69002B08D1444C3D
:103F1000414A7223FF33190040482300FFF752F94A
:103F20000920FFF7BBFC03007B617B691800FFF7EA
:103F3000E4FC03003B617A683A4BD31A9B103A4A7F
:103F40005343FB60FFF7FCFC0200BB699B00D318E6
:103F50001A68FB699A4208D1FFF7F2FC0200BB69BC
:103F60009B00D318314A1A6040E02723FB18002237
:103F70001A7000233B6229E02A493A6A13005B0069
:103F80009B189B00CB1806331B785BB21A00FB68AA
:103F90009A4218D123493A6A13005B009B189B0090
:103FA000CB180633FF221A701E493A6A13005B00D1
:103FB0009B189B00CB1804331D4A1A802723FB183B
:103FC00001221A7005E03B6A01333B623B6A032B16
:103FD000D2D92723FB181B78002B07D1154C0E4A8A
:103FE000C12359000D482300FFF7ECF8124B0022C3
:103FF0009A567B689A71FB685AB20F4B1A703A69ED
:104000007B6911001800FFF789FCC046BD460BB064
:1040100090BDC0469C8800103C8900103C87001071
:10402000C48800107C020020ABAAAAAACD0100100F
:1040300000BDFFFFD08800104619002080B582B077
:1040400000AF00237B6007E07B6880211800FFF74A
:1040500011FF7B6801337B607B681F2BF4D9C0465E
:10406000BD4602B080BD80B584B000AFB9607A6053
:104070003B600F23FB18021C1A70C046BD4604B0FB
:1040800080BD80B584B000AFB9607A603B600F231B
:10409000FB18021C1A700F23FB181B78002B08D08A
:1040A000BB681A68BB6859680F23FB181B78180097
:1040B0009047C046BD4604B080BD80B584B000AF17
:1040C000786039607B68FB6002E0FB680133FB606D
:1040D000FB681B78002B04D03B685A1E3A60002B0B
:1040E000F3D1FA687B68D31A1800BD4604B080BDCE
:1040F00080B582B000AF0200FB1D1A70FB1D1B785B
:104100002F2B05D9FB1D1B78392B01D8012300E08B
:1041100000231A1C01231340DBB21800BD4602B075
:1041200080BD80B584B000AF78600023FB600EE0F6
:10413000FA6813009B009B185B0018007B681B68E3
:10414000591C7A6811601B78C318303BFB607B6890
:104150001B681B781800FFF7CBFF031EE8D1FB6834
:104160001800BD4604B080BD90B587B000AFF860C0
:10417000B9607A603B607B683B617B6B02221340D5
:1041800024D17B6B0122134020D1FB6A7B610AE0C2
:104190007A68531C7B603B68B968FC682020A047A4
:1041A0007B6901337B617A693B6B9A42F0D30DE006
:1041B000FB6A013BFB62BA6AFB6AD31818787A681B
:1041C000531C7B603B68B968FC68A047FB6A002B06
:1041D000EED17B6B022213400ED007E07A68531CAD
:1041E0007B603B68B968FC682020A0477A683B691F
:1041F000D21A3B6B9A42F1D37B681800BD4607B0D8
:1042000090BD90B589B004AFF860B9607A603B604A
:10421000BB6B0222134034D17B6B002B17D0BB6BDE
:104220000122134013D02823FB181B78002B03D145
:10423000BB6B0C2213400AD07B6B013B7B6306E017
:104240007B6A5A1C7A623A6AD31830221A707A6AE8
:104250003B6B9A420AD27B6A1F2BF1D906E07B6A3C
:104260005A1C7A623A6AD31830221A70BB6B012248
:10427000134006D07A6A7B6B9A4202D27B6A1F2B6C
:10428000EDD9BB6B1022134056D0BA6B8023DB00F4
:10429000134016D17B6A002B13D07A6A3B6B9A428B
:1042A00003D07A6A7B6B9A420BD17B6A013B7B62BB
:1042B0007B6A002B05D0FB6A102B02D17B6A013B85
:1042C0007B62FB6A102B0ED1BB6B202213400AD1FC
:1042D0007B6A1F2B07D87B6A5A1C7A623A6AD3180A
:1042E00078221A701EE0FB6A102B0ED1BB6B2022C5
:1042F00013400AD07B6A1F2B07D87B6A5A1C7A624C
:104300003A6AD31858221A700CE0FB6A022B09D1C2
:104310007B6A1F2B06D87B6A5A1C7A623A6AD318CA
:1043200062221A707B6A1F2B06D87B6A5A1C7A623B
:104330003A6AD31830221A707B6A1F2B23D828239D
:10434000FB181B78002B07D07B6A5A1C7A623A6AEA
:10435000D3182D221A7016E0BB6B0422134007D02D
:104360007B6A5A1C7A623A6AD3182B221A700AE0C6
:10437000BB6B0822134006D07B6A5A1C7A623A6AE9
:10438000D31820221A703C687A68B968F868BB6B49
:1043900003937B6B02937B6A01933B6A0093230038
:1043A000FFF7E2FE03001800BD4605B090BD90B5D2
:1043B00097B008AFF860B9607A603B6000237B6318
:1043C000BB6C002B03D1FB6D10229343FB65FA6D90
:1043D0008023DB00134002D0BB6C002B34D0BB6CBD
:1043E000396D180001F0EAFA0B001A003323FB18AC
:1043F0001A707B6B5A1C7A633322BA181278092A16
:1044000005D83322BA1812783032D2B20DE0FA6DE4
:1044100020210A4001D0412200E061223321791895
:1044200009785218D2B20A3AD2B210217918CA5475
:10443000396DB86C01F0C2FA0300BB64BB6C002B91
:1044400002D07B6B1F2BCAD93C687A68B968F868C0
:10445000FB6D0693BB6D05937B6D04933B6D0393DE
:104460004C23FB181B7802937B6B01931023FB18E2
:1044700000932300FFF7C5FE03001800BD460FB0F0
:1044800090BDB0B596B008AFF860B9607A603B6097
:1044900000237B63BB6CFA6C134303D1BB6E102209
:1044A0009343BB66BA6E8023DB00134003D0BB6C22
:1044B000FA6C13433DD0B86CF96CBA6DFB6D01F02A
:1044C000C3FA1C001300190022003323FB180A1C36
:1044D0001A707B6B5A1C7A633322BA181278092A35
:1044E00005D83322BA1812783032D2B20DE0BA6E43
:1044F00020210A4001D0412200E0612233217918B5
:1045000009785218D2B20A3AD2B210217918CA5494
:10451000BA6DFB6DB86CF96C01F096FA03000C00F3
:10452000BB64FC64BB6CFA6C134302D07B6B1F2B27
:10453000C1D9BB6D3D687C68B968F868BA6E0692EF
:104540007A6E05923A6E049203935023FB181B78FF
:1045500002937B6B01931023FB1800932B00220026
:10456000FFF74FFE03001800BD460EB0B0BD0000BF
:10457000F0B59DB006AFF860B9607A603B6000238B
:104580007B6500230024BB63FC633A6F7B6F386F4D
:10459000796F01F0C8FC031E12D03C687A68B968D4
:1045A000F8688023FB181B680393FB6F02930323B7
:1045B0000193CA4B00932300FFF7D6FD030029E2C5
:1045C00001225242C64B386F796F01F099FC031EED
:1045D00012D03C687A68B968F8688023FB181B68B9
:1045E0000393FB6F029304230193BE4B00932300BC
:1045F000FFF7BAFD03000DE201225242BA4B386FB9
:10460000796F01F08BFC031E24D08023FB181B68FC
:104610000422134001D0B54B00E0B54B8022BA18FC
:10462000126804210A4001D0042200E003223E68FF
:104630007D68BC68F8688021791809680391F96F72
:1046400002910192009333002A002100FFF78CFDB4
:104650000300DFE10022A74B386F796F01F05EFCA9
:10466000031E07D10022A44B386F796F01F048FC7C
:10467000031E14D03D687A68B968F8688023FB1877
:104680001B680493FB6F0393BB6F02933B6F7C6FBC
:10469000009301942B0000F0C1F90300BAE1532309
:1046A000FB1800221A7000220023386F796F01F086
:1046B00027FC031E0DD05323FB1801221A703A6FFA
:1046C0007B6F0020002101F0BEFB03000C003B6764
:1046D0007C678023FB181A688023DB0013400CD111
:1046E0000623BB6709E07B6D5A1C7A651022BA1855
:1046F0003021D154BB6F013BBB677B6D1F2B02D8B0
:10470000BB6F092BEFD8386F796F01F037FC0300CE
:10471000FB64F86C01F01AFC03000C001A00230083
:10472000386F796F01F08FFB03000C001800210037
:10473000724ABB6FDB00D3185C681B681A00230049
:1047400001F09CFB03000C003B637C63386B796BCE
:1047500001F038FC0300BB64B86C01F0F3FB03000C
:104760000C001A002300386B796B01F06CFB03001E
:104770000C00BB63FC630022614BB86BF96B01F06A
:10478000CDFB031E17D0BB6C0133BB64B86C01F0CA
:10479000D9FB5A4ABB6FDB00D3185C681B681A0050
:1047A000230001F0B3FB031E17D00023BB64FB6C96
:1047B0000133FB6411E00022514BB86BF96B01F03F
:1047C0009FFB031E09D1BB6C002B03D0BB6C0122E5
:1047D000134002D0BB6C0133BB64BB6F002B3DD1D7
:1047E000F86C01F0B3FB03000C001A002300386FD3
:1047F000796F01F028FB03000C00BB63FC6301230D
:104800001C1C00223E4BB86BF96B01F079FB031EB8
:1048100001D100231C1CE3B201225340DBB2002B68
:1048200000D188E001231C1C0022354BB86BF96BCA
:1048300001F074FB031E01D100231C1CE3B2012212
:104840005340DBB2002B00D175E0FB6C012213401A
:1048500000D170E0FB6C0133FB646CE0BB6F7B64E8
:104860001BE07B6C013B7B647C6D631C7B65BB6CDC
:104870000A21180001F0A2F80B00DBB23033DAB2E3
:104880001023FB181A55BB6C0A21180001F096F88A
:104890000300BB64BB6C002B03D07B6D1F2BE0D9E6
:1048A00008E0C04606E07B6D5A1C7A651022BA18F3
:1048B0003021D1547B6D1F2B04D87B6C5A1E7A6437
:1048C000002BF0D17B6D1F2B35D87B6D5A1C7A6580
:1048D0001022BA182E21D1542DE0C046588900105C
:1048E000FFFFEFFF5C890010FFFFEF7F648900107E
:1048F0006C89001065CDCD4165CDCDC1508B0010C8
:104900000000E03F7C6D631C7B65FB6C0A21180096
:1049100001F028F80B00DBB23033DAB21023FB18B9
:104920001A55FB6C0A21180001F01CF80300FB6407
:10493000FB6C002B03D07B6D1F2BE3D900E0C0463E
:104940008023FB181B680222134025D18023FB180B
:104950001B68012213401FD0FB6F002B15D053237F
:10496000FB181B78002B05D18023FB181B680C2239
:1049700013400AD0FB6F013BFB6706E07B6D5A1CBE
:104980007A651022BA183021D1547A6DFB6F9A42A1
:1049900002D27B6D1F2BF1D97B6D1F2B27D85323A0
:1049A000FB181B78002B07D07B6D5A1C7A651022F0
:1049B000BA182D21D1541AE08023FB181B68042259
:1049C000134007D07B6D5A1C7A651022BA182B2130
:1049D000D1540CE08023FB181B680822134006D03A
:1049E0007B6D5A1C7A651022BA182021D1543C687C
:1049F0007A68B968F8688023FB181B680393FB6F1B
:104A000002937B6D01931023FB1800932300FFF7A3
:104A1000ABFB03001800BD4617B0F0BDF0B5A5B064
:104A200006AFF863B9637A633B639023FB181A6897
:104A30005B68902179180868496801F074FA031ED0
:104A400015D101225242DF4B90217918086849683C
:104A500001F064FA031E0AD101225242DA4B90217E
:104A600079180868496801F04BFA031E1AD03D6BAB
:104A70007A6BB96BF86BA023FB181B6804939C231B
:104A8000FB181B6803939823FB181B680293902361
:104A9000FB185C681B68009301942B00FFF768FD0E
:104AA000030082E23B233022BA18D4180123FB71A1
:104AB00000220023902179180868496801F020FA43
:104AC000031E01D10023FB71FB7923703B233022AD
:104AD0009446BC4463441B78002B0ED09023FB18F3
:104AE0001B689022BA1813609423FB181A6880235D
:104AF0001B0653409422BA181360A023FB181A68AF
:104B00008023DB00134003D106239822BA181360D8
:104B10009023FB185C681B683B647C643B6C7C6C7A
:104B2000230D3B6200237B623B6A5B055B0DA74A5A
:104B3000944663447B663B6C7C6C00221900914375
:104B40000D0023031E0B00232B43BB61A04B3343FB
:104B5000FB61BB69FC693B647C64786E01F0F6F92B
:104B60009C4A9D4B01F08AF903000C0018002100BB
:104B70009A4A9B4B01F070F903000C001D002600BF
:104B8000386C796C0022974B01F05DF903000C0042
:104B900018002100944A954B01F070F903000C00B5
:104BA0001A0023002800310001F056F903000C0020
:104BB0001800210001F0E2F903007B67786F01F033
:104BC000C5F98B4A8B4B01F059F903000C00180012
:104BD00021000022884B01F03FF903000C0018006F
:104BE000210001F0CBF903007B66786F01F0AEF98C
:104BF000824A834B01F042F903000C0025001C009F
:104C0000786E01F0A3F97F4A7F4B01F037F902007B
:104C10000B002000290001F016F903000C00BB6511
:104C2000FC65BA6DFB6DB86DF96D01F027F90300F5
:104C30000C003B657C657B6E744A944663443B6123
:104C4000DB177B613B691B05FB600023BB60BB6816
:104C5000FC683B647C643C6C7D6CB86DF96D020053
:104C60000B0001F0F9F802000B003A627B62BA6DAA
:104C7000FB6D00208021C90501F0E5F802000B0062
:104C8000BA61FB610022624B386D796D01F0EDF87D
:104C900002000B001000190000225E4B01F0DCF84E
:104CA00002000B00386D796D01F0DFF802000B0097
:104CB000100019000022584B01F0CEF802000B0042
:104CC000386D796D01F0D1F802000B00B869F9690F
:104CD00001F0C2F802000B00386A796A01F0C5F8E9
:104CE00002000B00100019000022394B01F0B4F84B
:104CF00002000B002000290001F0C0F803000C00A6
:104D00003B647C64386C796C9023FB181A685B6890
:104D100001F004F9031E0CD07B6F013B7B67386CFC
:104D2000796C00223B4B01F0A0F803000C003B64BF
:104D30007C647B6F632B04DC7B6F633301DB0423B8
:104D400000E005233B67A023FB181A6880231B01A2
:104D5000134000D17BE0314A314B9021791808682B
:104D6000496801F0D3F8031E5ED000222D4B90213C
:104D700079180868496801F0C3F8031E54D09823D5
:104D8000FB181A687B6F9A4209DD9823FB181A6892
:104D90007B6FD31A013B9822BA18136003E00023FB
:104DA0009822BA181360A023FB181B688022D20037
:104DB0001343A022BA18136000233B6700237B67CC
:104DC00045E0C046FFFFEF7FFFFFEFFF01FCFFFF65
:104DD0000000F03FFB799F501344D33FB3C8608B72
:104DE000288AC63F0000F83F61436F63A787D23F20
:104DF00071A379094F930A400000E03F1655B5BBF7
:104E0000B16B0240EF39FAFE422EE63FFF0300008D
:104E100000002C4000002440000018402D431CEBF3
:104E2000E2361A3F80842E419823FB181B68002B22
:104E30000DD0A023FB181A688023DB00134006D096
:104E40009823FB181B68013B9822BA1813609C2317
:104E5000FB181B68FB669C23FB181A683B6F9A4281
:104E600004D9FA6E3B6FD31AFB6601E00023FB66A0
:104E7000A023FB181B680222134004D03B6F002BB9
:104E800001D00023FB667B6F002B0FD03B6C7C6C4A
:104E90001A002300902179180868496800F0E5FF9E
:104EA00003000C009022BA18136054607B6BFB6403
:104EB0003B2330229446BC4463441B78002B0BD028
:104EC0009023FB181B68BB629423FB181B6880228D
:104ED00012065A40FA6205E09023FB185C681B68D2
:104EE000BB62FC62A023FB181B68324A13403C6B78
:104EF0007A6BB96BF86B0493FB6E03939823FB18E2
:104F00001B680293BD6AFE6A009501962300FFF7B5
:104F10002FFB03007B633B6F002B45D0A023FB18C6
:104F20001B682022134001D0452000E065207A6BE9
:104F3000531C7B633B6BB96BFC6BA0477B6FDA1731
:104F40009B1853409C467B6FDB0FDBB23A6F013AF4
:104F50003E6B7D6BBC6BF86B0521059104920022C2
:104F600003920A22029201936346009333002A00BF
:104F70002100FFF71CFA03007B63A023FB181B68CA
:104F80000222134010D007E07A6B531C7B633B6B0B
:104F9000B96BFC6B2020A0477A6BFB6CD21A9C2368
:104FA000FB181B689A42EFD37B6B1800BD461FB0FD
:104FB000F0BDC046FFF7FFFFF0B5C64600B5A6B08E
:104FC0000AAF78623962FA61BB610023FB653B6A14
:104FD000002B01D000F026FCD04B7B6200F022FCBD
:104FE000BB691B78252B0DD0BB691878FA6D531C53
:104FF000FB65FB69396A7C6AA047BB690133BB6109
:1050000000F010FCBB690133BB610023FB66BB6988
:105010001B78203B102B36D89A00C14BD3181B6845
:105020009F46FB6E01221343FB66BB690133BB61E4
:1050300001233B662AE0FB6E02221343FB66BB6939
:105040000133BB6101233B6620E0FB6E0422134366
:10505000FB66BB690133BB6101233B6616E0FB6E57
:1050600008221343FB66BB690133BB6101233B6626
:105070000CE0FB6E10221343FB66BB690133BB617E
:1050800001233B6602E000233B66C0463B6E002BDB
:10509000BDD10023BB66BB691B781800FFF728F859
:1050A000031E07D01823FB181800FFF73AF8030077
:1050B000BB661CE0BB691B782A2B18D18823FB1820
:1050C0001B681A1D882179180A601B68BB64BB6CB9
:1050D000002B07DAFB6E02221343FB66BB6C5B42BC
:1050E000BB6601E0BB6CBB66BB690133BB610023DF
:1050F0007B66BB691B782E2B2BD1FB6E8022D200E6
:105100001343FB66BB690133BB61BB691B781800A5
:10511000FEF7EEFF031E07D01823FB181800FFF759
:1051200000F803007B6614E0BB691B782A2B10D1C2
:105130008823FB181B681A1D882179180A601B68D0
:105140007B647B6C002B00DA00237B66BB69013338
:10515000BB61BB691B78683B122B47D89A00714B27
:10516000D3181B689F46FB6E802252001343FB66D8
:10517000BB690133BB61BB691B786C2B38D1FB6EFB
:10518000802292001343FB66BB690133BB612FE0B1
:10519000FB6E80221343FB66BB690133BB61BB69B5
:1051A0001B78682B26D1FB6E40221343FB66BB693C
:1051B0000133BB611EE0FB6E802252001343FB668D
:1051C000BB690133BB6116E0FB6E80229200134382
:1051D000FB66BB690133BB610DE0FB6E80225200B0
:1051E0001343FB66BB690133BB6104E0C04602E0C8
:1051F000C04600E0C046BB691B78253B532B00D955
:1052000003E39A00484BD3181B689F46BB691B7881
:10521000782B03D0BB691B78582B02D11023BB65B8
:1052200013E0BB691B786F2B02D10823BB650CE030
:10523000BB691B78622B02D10223BB6505E00A2300
:10524000BB65FB6E10229343FB66BB691B78582B32
:1052500003D1FB6E20221343FB66BB691B78692BCD
:1052600007D0BB691B78642B03D0FB6E0C229343E1
:10527000FB66FA6E8023DB00134003D0FB6E012235
:105280009343FB66BB691B78692B04D0BB691B7811
:10529000642B00D0B7E0FA6E80239B00134045D00A
:1052A0008823FB181B680733072293431A00083230
:1052B000882179180A605C681B68BB63FC63BB6B60
:1052C000FC6B002C04DA1900220000244B429441AC
:1052D00019002200FB6BDB0FD8B2BB6DBB60002353
:1052E000FB60FB699C46FE6D3D6A7B6A9846FB6EDF
:1052F0000893BB6E07937B6E0693BB68FC680493B0
:1053000005940290009101926346320029004046C4
:10531000FFF7B7F80300FB6503E1C04667400010E4
:1053200070890010B4890010008A0010FA6E802382
:105330005B00134025D08823FB181B681A1D8821A9
:1053400079180A601B687B637B6BDA179B185340E4
:105350001E007B6BDB0FDAB2FD69FC6D396A786A7F
:10536000FB6E0593BB6E04937B6E0393BB6D029340
:10537000019200962B002200FFF719F80300FB654D
:10538000CFE0FB6E4022134009D08823FB181B6836
:105390001A1D882179180A601B68DBB215E0FB6EC4
:1053A0008022134009D08823FB181B681A1D88210E
:1053B00079180A601B681BB207E08823FB181B687A
:1053C0001A1D882179180A601B683B633B6BDA174A
:1053D0009B1853401E003B6BDB0FDAB2FD69FC6D7E
:1053E000396A786AFB6E0593BB6E04937B6E0393F8
:1053F000BB6D0293019200962B002200FEF7D7FFAF
:105400000300FB658DE0FA6E80239B0013402BD0D8
:105410008823FB181B680733072293431A000832BE
:10542000882179180A6019685A68BB6D3B610023AE
:105430007B61FE69FD6D3B6A9C46786AFB6E089352
:10544000BB6E07937B6E06933B697C69049305945E
:10545000002302930091019233002A006146FFF776
:1054600010F80300FB655CE0FA6E80235B001340DC
:105470001DD08823FB181B681A1D882179180A6023
:105480001B68FD69FC6D396A786AFA6E0592BA6E1E
:1054900004927A6E0392BA6D0292002201920093F6
:1054A0002B002200FEF783FF0300FB6539E0FB6E53
:1054B0004022134009D08823FB181B681A1D88213D
:1054C00079180A601B68DBB215E0FB6E802213407E
:1054D00009D08823FB181B681A1D882179180A60D7
:1054E0001B689BB207E08823FB181B681A1D8821E4
:1054F00079180A601B683B64FC69FA6D396A786A3E
:10550000FB6E0593BB6E04937B6E0393BB6D02939E
:10551000002301933B6C00932300FEF748FF030038
:10552000FB65BB690133BB617CE1BB691B78462B22
:1055300003D1FB6E20221343FB668823FB181B68F4
:105540000733072293431A000832882179180A602A
:105550005C681B68FE69FD6D396A786AFA6E0492B0
:10556000BA6E03927A6E02920093019433002A007D
:10557000FEF7FEFF0300FB65BB690133BB6151E130
:10558000BB691B78672B03D0BB691B78472B04D101
:10559000FB6E802212011343FB66BB691B78452B0F
:1055A00003D0BB691B78472B03D1FB6E202213432A
:1055B000FB668823FB181B680733072293431A00F6
:1055C0000832882179180A605C681B68FE69FD6DE5
:1055D000396A786AFA6E0492BA6E03927A6E02920F
:1055E0000093019433002A00FFF718FA0300FB65CB
:1055F000BB690133BB6115E101237B65FB6E0222B0
:1056000013400ED107E0FA6D531CFB65FB69396A44
:105610007C6A2020A0477B6D5A1C7A65BA6E934243
:10562000F1D38823FB181B681A1D882179180A609A
:105630001B68D8B2FA6D531CFB65FB69396A7C6A3A
:10564000A047FB6E022213400ED007E0FA6D531CF8
:10565000FB65FB69396A7C6A2020A0477B6D5A1C78
:105660007A65BA6E9342F1D3BB690133BB61D9E06D
:105670008823FB181B681A1D882179180A601B688B
:105680003B657B6E002B01D07B6E01E001235B420A
:105690003A6D19001000FEF710FD0300FB64FA6E6E
:1056A0008023DB00134005D0FA6C7B6E934200D957
:1056B0001300FB64FB6E022213401AD107E0FA6D5F
:1056C000531CFB65FB69396A7C6A2020A047FB6C90
:1056D0005A1CFA64BA6E9342F1D30AE03B6D5A1C2D
:1056E0003A651878FA6D531CFB65FB69396A7C6A68
:1056F000A0473B6D1B78002B09D0FA6E8023DB009E
:105700001340EBD07B6E5A1E7A66002BE6D1FB6EFF
:10571000022213400ED007E0FA6D531CFB65FB69B3
:10572000396A7C6A2020A047FB6C5A1CFA64BA6E66
:105730009342F1D3BB690133BB6173E00823BB66BD
:10574000FB6E21221343FB66172318229446BC44A8
:10575000634400221A70172318229446BC44634401
:105760001B78002B24D08823FB181B681A1D882166
:1057700079180A601B683B6000237B60FD69FA6D45
:10578000396A786AFB6E0893BB6E07937B6E06934B
:105790001023002404930594002302933B687C6843
:1057A000009301942B00FEF76CFE0300FB651CE0E8
:1057B0008823FB181B681A1D882179180A601B684A
:1057C0001D00FC69FA6D396A786AFB6E0593BB6E41
:1057D00004937B6E0393102302930023019300959F
:1057E0002300FEF7E4FD0300FB65BB690133BB61E9
:1057F00018E0FA6D531CFB65FB69396A7C6A252049
:10580000A047BB690133BB610CE0BB691878FA6D36
:10581000531CFB65FB69396A7C6AA047BB6901338D
:10582000BB61C046BB691B78002B01D0FFF7D8FBDA
:10583000FA6DFB699A4202D3FB695A1E00E0FA6DC9
:10584000FB69396A7C6A0020A047FB6D1800BD46E1
:105850001CB004BC9046F0BD90B589B002AFF860B2
:10586000B9607A603B601023FB18FA681A60102355
:10587000FB18BA685A607C6801235A421023F91851
:1058800005483B6800932300FFF796FB03001800D0
:10589000BD4607B090BDC0468340001001480421BA
:1058A000014B1847D0020020FD58001080B584B08D
:1058B00000AF786018231B88FB6014231B88BB6033
:1058C0007968BA68FB681000984703001800BD4665
:1058D00004B080BD80B584B000AF786018231B8809
:1058E000FB6016231B88BB607968BA68FB681000F0
:1058F000984703001800BD4604B080BD90B585B040
:1059000000AF786039600F23FB1801221A70002362
:10591000BB601BE0BB689B007A68D418BB689B0027
:105920007A68D3181B681800FFF7C0FF03002360D4
:10593000BB689B007A68D3181B68002B03D10F2328
:10594000FB1800221A70BB680133BB60BA683B6861
:105950009A42DFD30F23FB181B781800BD4605B011
:1059600090BD0000144A936F9B0815D29066D166D3
:10597000002905D0FFE7FFE7FFE7516F106F704781
:1059800004B580210906C2175140002800D0C84341
:1059900002F0E6F9002104BD936F5B08FDD3F0B57A
:1059A000946ED56E576F166FFFF7E0FF9466D5665D
:1059B00057671667F0BD0000000000D0134A936FD0
:1059C0009B0813D210665166002905D0FFE7FFE758
:1059D000FFE7516F106F704704B5002801D0002019
:1059E000C04302F0BDF9002104BDC046936F5B08BF
:1059F000FDD3F0B5946ED56E576F166FFFF7E2FFCB
:105A00009466D56657671667F0BD0000000000D0A9
:105A100094464E4A926F9208624601D230E0C046E8
:105A2000F0B54A4EB56F6D08FCD3346E756E776F66
:105A3000366F00F025F89446444A14665566576759
:105A400016676246F0BDC0469446404A926F92087F
:105A5000624601D258E0C046F0B53C4EB56F6D08C5
:105A6000FCD3346E756E776F366F00F04DF8944648
:105A7000364A14665566576716676246F0BDC046DB
:105A8000002B24DB11D000293EDA00B5C943404287
:105A900000D1013100F038F8C943404200D1013152
:105AA000DB43524200D1013300BD002AEBD1002874
:105AB00001D1002905D00020C90FC90701D1C04379
:105AC000410800B502F044F90022002300BD00B5F2
:105AD00000290ADBDB43524200D1013300F014F805
